:03000000020BEA06
:0C0BEA00787FE4F6D8FD758131020C31F3
:100D4700506F736974696F6E204F7574206F6620DA
:090D5700426F756E6473200A00FE
:100D60000A283F065B4F666D7D077F670222000001
:100C7600E4F5087527F4F52675890185278C852600
:100C86008AD2AFD2A9D28CF525E4F524D3E52494F3
:100C96000974809480501074282525F8E6FFAD0865
:100CA600120CC4052480E505085308033009DAC28E
:0E0CB600090525E52575F00A8485F02580CB1B
:03000B00020CF7ED
:040CF700C0E0C0D0C9
:100CFB000523E5237002052285278C85268AE523AB
:100D0B00B4E80DE522B40308752200752300D2095F
:050D1B00D0D0D0E03251
:100CC4008F80EDFF7E007003F5A022EF64014E706B
:100CD4000475A02022EF64024E700475A04022EF38
:100CE40064034E700475A060227BFF7A0D7947126D
:030CF40008622271
:100BF600020C76E493A3F8E493A34003F68001F293
:100C060008DFF48029E493A3F85407240CC8C333FF
:100C1600C4540F4420C8834004F456800146F6DFCE
:100C2600E4800B0102040810204080900D60E47EF1
:100C3600019360BCA3FF543F30E509541FFEE493C3
:100C4600A360010ECF54C025E060A840B8E493A38A
:100C5600FAE493A3F8E493A3C8C582C8CAC583CAB5
:100C6600F0A3C8C582C8CAC583CADFE9DEE780BE6D
:010D70000082
:10080000E518240CF8E60518227809300702780C60
:10081000E475F001120BB4020B5C2000EB7F2ED2CA
:10082000008018EF540F2490D43440D4FF30040BD0
:10083000EF24BFB41A0050032461FFE519600215CC
:1008400019051CE51C7002051B30070D7809E475BD
:10085000F001120BB4EF020BA2020D207403D207B9
:100860008003E4C207F5188B098A0A890BE4F5199D
:10087000F51BF51CE51960077F2012083B80F57514
:100880001AFFC201C200C202C203C205C206C208E8
:10089000120809FF700D3007057F0012084CAF1CCD
:1008A000AE1B22B4255FC2D5C204120809FF24D0B2
:1008B000B40A00501A75F00A781930D50508B6FF49
:1008C0000106C6A426F620D5047002D20380D924DE
:1008D000CFB41A00EF5004C2E5D204020A4CD20190
:1008E00080C6D20080C0D20280BCD2D580BAD205E8
:1008F00080B47F2012083B2002077401B519004024
:10090000F1120800FF12083B020874D208D20680D8
:1009100095120800FB120800FA120800F94A4B7001
:1009200006791D7A0B7BFF20022EE519602A7E00D6
:100930008E82758300120B7560060EEE651A70F0DC
:10094000C2D5EBC0E0EAC0E0E9C0E0EE120A93D005
:10095000E0F9D0E0FAD0E0FB120B5CFF60AAEBC03C
:10096000E0EAC0E0E9C0E012083BD0E02401F9D0A1
:10097000E03400FAD0E0FBE51A0460DCD51AD98037
:10098000877BFF7A0A798FD202809C791080027966
:1009900008C206C2088008D2D5790A8004790AC242
:1009A000D5E51A047002F51AE4FAFDFEFF120800FC
:1009B000FC7B08200113120800FD7B1030000A1296
:1009C0000800FE120800FF7B20EC3382D592D55040
:1009D00013C3E43000069FFFE49EFEE42001039D64
:1009E000FDE49CFCE4CBF8C201EC700CCFCECDCC86
:1009F000E824F8F870F38017C3EF33FFEE33FEED11
:100A000033FDEC33FCEB33FB994002FB0FD8E9EBF1
:100A1000300105F8D0E0C448B201C0E00AEC4D4E08
:100A20004F78207B0070C2EAB51A0040BCC0E012CB
:100A30000A95D0F0D0E0200104C4C0E0C4B201C0E7
:100A4000F0120824D0F0D5F0EB020874120BC409A0
:100A50001153098B5808E24C08DE42098F4F099761
:0F0A60004409974908F743099D550981460981C3
:100A6F00450981470B3D5008E62D08EA2E090D2B4D
:100A7F0008EE23090B200B262A08A64800000905BB
:100A8F003F3F3F00790AA2D5200314300509B91062
:100A9F00020404B9080104A2D52006025001042063
:100AAF0002689202B519005034C0E07F203003195C
:100ABF007F30A20272067205500F120AECC202C2F8
:100ACF0006C205C2087F30800F300503E9C0E0126F
:100ADF00083B300503D0E0F9D0E0B519CC3005174D
:100AEF007F30B9100C12083B7F583004077F788095
:100AFF0003B9080312083B3002057F2D02083B7F24
:100B0F00202008F87F2B2006F322920280CF286E38
:100B1F00756C6C2900D2011208003001F8C20178FF
:100B2F001930D50108F60208A62D5043495812086E
:100B3F00002403B405004001E4900B389312082CF5
:0D0B4F00743A12082CD20375190402098BA8
:100B5C00BB010689828A83E0225002E722BBFE0297
:090B6C00E32289828A83E49322CA
:100B7500BB010CE58229F582E5833AF583E0225035
:100B850006E92582F8E622BBFE06E92582F8E2227F
:0D0B9500E58229F582E5833AF583E4932299
:100BA200BB010689828A83F0225002F722BBFE0132
:020BB200F3222C
:100BB400FAE6FB0808E6F925F0F618E6CA3AF62242
:100BC400D083D082F8E4937012740193700DA3A3C0
:100BD40093F8740193F5828883E4737402936860D4
:060BE400EFA3A3A380DFD4
:100D2000EFB40A07740D120D2B740A309811A899AC
:100D3000B8130CC2983098FDA899C298B811F63033
:070D400099FDC299F599220B
:00000001FF
