:030000000208ED06
:0C08ED00787FE4F6D8FD75810902080050
:1008BC00446861726D696B00553137454530323192
:0108CC00002B
:1008000012087B7F801208DDE4F508C3E508940731
:10081000748094805015E5089008BC93FF1208CDB1
:100820007FF47E0112085B050880E07FC01208DDBE
:10083000E4F508C3E50894087480948050C2E50884
:100840009008C493FF1208CD7FF47E0112085B0567
:030850000880E03D
:10087B007F381208DD1208577F011208DD12085766
:10088B007F021208DD1208577F061208DD12085787
:05089B007F0F0208DDE3
:1008CD008F091208A0850980D2A7120853C2A5224C
:1008DD008F091208A0850980C2A7120853C2A5224C
:1008A0007580FFC2A7D2A630870DC2A57F017E004A
:0C08B00012085BD2A580F0C2A5C2A622EF
:08085300C2A6D2A57F0A7E00B7
:10085B00E4FDFCC3ED9FEC9E5015E4FBFA0BBB00D3
:0F086B00010ABA03F8BBE8F50DBD00010C80E4EB
:01087A00225B
:00000001FF
